{
  "contractName": "TodoSmartContract",
  "abi": [
    {
      "inputs": [
        {
          "internalType": "uint256",
          "name": "_id",
          "type": "uint256"
        }
      ],
      "name": "getTodo",
      "outputs": [
        {
          "components": [
            {
              "internalType": "uint256",
              "name": "id",
              "type": "uint256"
            },
            {
              "internalType": "string",
              "name": "title",
              "type": "string"
            },
            {
              "internalType": "string",
              "name": "description",
              "type": "string"
            },
            {
              "internalType": "uint256",
              "name": "priority",
              "type": "uint256"
            }
          ],
          "internalType": "struct TodoSmartContract.STodo",
          "name": "",
          "type": "tuple"
        }
      ],
      "stateMutability": "view",
      "type": "function",
      "constant": true
    },
    {
      "inputs": [],
      "name": "getTodos",
      "outputs": [
        {
          "components": [
            {
              "internalType": "uint256",
              "name": "id",
              "type": "uint256"
            },
            {
              "internalType": "string",
              "name": "title",
              "type": "string"
            },
            {
              "internalType": "string",
              "name": "description",
              "type": "string"
            },
            {
              "internalType": "uint256",
              "name": "priority",
              "type": "uint256"
            }
          ],
          "internalType": "struct TodoSmartContract.STodo[]",
          "name": "",
          "type": "tuple[]"
        }
      ],
      "stateMutability": "view",
      "type": "function",
      "constant": true
    },
    {
      "inputs": [
        {
          "internalType": "string",
          "name": "_title",
          "type": "string"
        },
        {
          "internalType": "string",
          "name": "_description",
          "type": "string"
        },
        {
          "internalType": "uint256",
          "name": "_priority",
          "type": "uint256"
        }
      ],
      "name": "addTodo",
      "outputs": [
        {
          "components": [
            {
              "internalType": "string",
              "name": "message",
              "type": "string"
            }
          ],
          "internalType": "struct TodoSmartContract.SResult",
          "name": "",
          "type": "tuple"
        }
      ],
      "stateMutability": "payable",
      "type": "function",
      "payable": true
    },
    {
      "inputs": [
        {
          "internalType": "uint256",
          "name": "_id",
          "type": "uint256"
        }
      ],
      "name": "deleteTodo",
      "outputs": [
        {
          "components": [
            {
              "internalType": "string",
              "name": "message",
              "type": "string"
            }
          ],
          "internalType": "struct TodoSmartContract.SResult",
          "name": "",
          "type": "tuple"
        }
      ],
      "stateMutability": "payable",
      "type": "function",
      "payable": true
    },
    {
      "inputs": [
        {
          "internalType": "uint256",
          "name": "_id",
          "type": "uint256"
        },
        {
          "internalType": "string",
          "name": "_title",
          "type": "string"
        },
        {
          "internalType": "string",
          "name": "_description",
          "type": "string"
        },
        {
          "internalType": "uint256",
          "name": "_priority",
          "type": "uint256"
        }
      ],
      "name": "updateTodo",
      "outputs": [
        {
          "components": [
            {
              "internalType": "string",
              "name": "message",
              "type": "string"
            }
          ],
          "internalType": "struct TodoSmartContract.SResult",
          "name": "",
          "type": "tuple"
        }
      ],
      "stateMutability": "payable",
      "type": "function",
      "payable": true
    }
  ],
  "bytecode": "0x608060405234801561001057600080fd5b50610fa1806100206000396000f3fe60806040526004361061004a5760003560e01c80636e3c67381461004f578063c33926cb1461007f578063dd68afb6146100aa578063e68065d7146100e7578063f62a69c114610117575b600080fd5b610069600480360381019061006491906109f9565b610147565b6040516100769190610d00565b60405180910390f35b34801561008b57600080fd5b50610094610249565b6040516100a19190610cde565b60405180910390f35b3480156100b657600080fd5b506100d160048036038101906100cc91906109f9565b6103e0565b6040516100de9190610d22565b60405180910390f35b61010160048036038101906100fc9190610a22565b610593565b60405161010e9190610d00565b60405180910390f35b610131600480360381019061012c919061097a565b61068d565b60405161013e9190610d00565b60405180910390f35b61014f6107df565b600060016000848152602001908152602001600020549050600081815481106101a1577f4e487b7100000000000000000000000000000000000000000000000000000000600052603260045260246000fd5b90600052602060002090600402016000808201600090556001820160006101c891906107f2565b6002820160006101d891906107f2565b6003820160009055505060016000848152602001908152602001600020600090556102016107df565b6040518060400160405280601c81526020017f546f646f2069732064656c65746564207375636365737366756c6c790000000081525081600001819052508092505050919050565b60606000805480602002602001604051908101604052809291908181526020016000905b828210156103d75783829060005260206000209060040201604051806080016040529081600082015481526020016001820180546102aa90610e78565b80601f01602080910402602001604051908101604052809291908181526020018280546102d690610e78565b80156103235780601f106102f857610100808354040283529160200191610323565b820191906000526020600020905b81548152906001019060200180831161030657829003601f168201915b5050505050815260200160028201805461033c90610e78565b80601f016020809104026020016040519081016040528092919081815260200182805461036890610e78565b80156103b55780601f1061038a576101008083540402835291602001916103b5565b820191906000526020600020905b81548152906001019060200180831161039857829003601f168201915b505050505081526020016003820154815250508152602001906001019061026d565b50505050905090565b6103e8610832565b6000600160008481526020019081526020016000205490506000818154811061043a577f4e487b7100000000000000000000000000000000000000000000000000000000600052603260045260246000fd5b90600052602060002090600402016040518060800160405290816000820154815260200160018201805461046d90610e78565b80601f016020809104026020016040519081016040528092919081815260200182805461049990610e78565b80156104e65780601f106104bb576101008083540402835291602001916104e6565b820191906000526020600020905b8154815290600101906020018083116104c957829003601f168201915b505050505081526020016002820180546104ff90610e78565b80601f016020809104026020016040519081016040528092919081815260200182805461052b90610e78565b80156105785780601f1061054d57610100808354040283529160200191610578565b820191906000526020600020905b81548152906001019060200180831161055b57829003601f168201915b50505050508152602001600382015481525050915050919050565b61059b6107df565b60006001600087815260200190815260200160002054905060008082815481106105ee577f4e487b7100000000000000000000000000000000000000000000000000000000600052603260045260246000fd5b906000526020600020906004020190508581600101908051906020019061061692919061085a565b508481600201908051906020019061062f92919061085a565b508381600301819055506106416107df565b6040518060400160405280601c81526020017f546f646f2069732064656c65746564207375636365737366756c6c79000000008152508160000181905250809350505050949350505050565b6106956107df565b61069d610832565b600042336040516020016106b2929190610cb2565b6040516020818303038152906040528051906020012060001c905060008054905060016000838152602001908152602001600020819055508082600001818152505085826020018190525084826040018190525083826060018181525050600082908060018154018082558091505060019003906000526020600020906004020160009091909190915060008201518160000155602082015181600101908051906020019061076292919061085a565b50604082015181600201908051906020019061077f92919061085a565b506060820151816003015550506107946107df565b6040518060400160405280601a81526020017f546f646f206973206164646564207375636365737366756c6c7900000000000081525081600001819052508093505050509392505050565b6040518060200160405280606081525090565b5080546107fe90610e78565b6000825580601f10610810575061082f565b601f01602090049060005260206000209081019061082e91906108e0565b5b50565b6040518060800160405280600081526020016060815260200160608152602001600081525090565b82805461086690610e78565b90600052602060002090601f01602090048101928261088857600085556108cf565b82601f106108a157805160ff19168380011785556108cf565b828001600101855582156108cf579182015b828111156108ce5782518255916020019190600101906108b3565b5b5090506108dc91906108e0565b5090565b5b808211156108f95760008160009055506001016108e1565b5090565b600061091061090b84610d75565b610d44565b90508281526020810184848401111561092857600080fd5b610933848285610e36565b509392505050565b600082601f83011261094c57600080fd5b813561095c8482602086016108fd565b91505092915050565b60008135905061097481610f54565b92915050565b60008060006060848603121561098f57600080fd5b600084013567ffffffffffffffff8111156109a957600080fd5b6109b58682870161093b565b935050602084013567ffffffffffffffff8111156109d257600080fd5b6109de8682870161093b565b92505060406109ef86828701610965565b9150509250925092565b600060208284031215610a0b57600080fd5b6000610a1984828501610965565b91505092915050565b60008060008060808587031215610a3857600080fd5b6000610a4687828801610965565b945050602085013567ffffffffffffffff811115610a6357600080fd5b610a6f8782880161093b565b935050604085013567ffffffffffffffff811115610a8c57600080fd5b610a988782880161093b565b9250506060610aa987828801610965565b91505092959194509250565b6000610ac18383610bb8565b905092915050565b610ada610ad582610dfa565b610eaa565b82525050565b6000610aeb82610db5565b610af58185610dd8565b935083602082028501610b0785610da5565b8060005b85811015610b435784840389528151610b248582610ab5565b9450610b2f83610dcb565b925060208a01995050600181019050610b0b565b50829750879550505050505092915050565b6000610b6082610dc0565b610b6a8185610de9565b9350610b7a818560208601610e45565b610b8381610f36565b840191505092915050565b60006020830160008301518482036000860152610bab8282610b55565b9150508091505092915050565b6000608083016000830151610bd06000860182610c8c565b5060208301518482036020860152610be88282610b55565b91505060408301518482036040860152610c028282610b55565b9150506060830151610c176060860182610c8c565b508091505092915050565b6000608083016000830151610c3a6000860182610c8c565b5060208301518482036020860152610c528282610b55565b91505060408301518482036040860152610c6c8282610b55565b9150506060830151610c816060860182610c8c565b508091505092915050565b610c9581610e2c565b82525050565b610cac610ca782610e2c565b610ece565b82525050565b6000610cbe8285610c9b565b602082019150610cce8284610ac9565b6014820191508190509392505050565b60006020820190508181036000830152610cf88184610ae0565b905092915050565b60006020820190508181036000830152610d1a8184610b8e565b905092915050565b60006020820190508181036000830152610d3c8184610c22565b905092915050565b6000604051905081810181811067ffffffffffffffff82111715610d6b57610d6a610f07565b5b8060405250919050565b600067ffffffffffffffff821115610d9057610d8f610f07565b5b601f19601f8301169050602081019050919050565b6000819050602082019050919050565b600081519050919050565b600081519050919050565b6000602082019050919050565b600082825260208201905092915050565b600082825260208201905092915050565b6000610e0582610e0c565b9050919050565b600073ffffffffffffffffffffffffffffffffffffffff82169050919050565b6000819050919050565b82818337600083830152505050565b60005b83811015610e63578082015181840152602081019050610e48565b83811115610e72576000848401525b50505050565b60006002820490506001821680610e9057607f821691505b60208210811415610ea457610ea3610ed8565b5b50919050565b6000610eb582610ebc565b9050919050565b6000610ec782610f47565b9050919050565b6000819050919050565b7f4e487b7100000000000000000000000000000000000000000000000000000000600052602260045260246000fd5b7f4e487b7100000000000000000000000000000000000000000000000000000000600052604160045260246000fd5b6000601f19601f8301169050919050565b60008160601b9050919050565b610f5d81610e2c565b8114610f6857600080fd5b5056fea2646970667358221220c92415296a10a02ee68cda97f0ad2cf8c93e9bcc4bc472d7f562f6c8ba10a8f764736f6c63430008000033",
  "immutableReferences": {},
  "source": "// SPDX-License-Identifier: GPL-3.0\npragma solidity ^0.8.0;\n\nimport \"@openzeppelin/contracts/token/ERC721/extensions/ERC721Enumerable.sol\";\nimport \"@openzeppelin/contracts/access/Ownable.sol\";\n\ncontract TodoSmartContract {\n    using Strings for uint256;\n\n    struct STodo {\n        uint256 id;\n        string title;\n        string description;\n        uint256 priority;\n    }\n\n    struct SResult {\n        string message;\n    }\n\n    STodo[] todos;\n    mapping(uint256 => uint256) todosMap;\n\n    function getTodo(uint256 _id) public view returns(STodo memory) {\n        uint256 _index = todosMap[_id];\n        return todos[_index];\n    }\n\n    function getTodos() public view returns(STodo[] memory) {\n        return todos;\n    }\n\n    function addTodo(string memory _title, string memory _description, uint256 _priority) public payable returns(SResult memory) {\n        STodo memory newTodo;\n        uint256 _id = uint256(keccak256(abi.encodePacked(block.timestamp, msg.sender)));\n        todosMap[_id] = todos.length;\n        newTodo.id = _id;\n        newTodo.title = _title;\n        newTodo.description = _description;\n        newTodo.priority = _priority;\n        todos.push(newTodo);\n\n        SResult memory result;\n        result.message = \"Todo is added successfully\";\n\n        return result;\n    }\n\n    function deleteTodo(uint256 _id) public payable returns(SResult memory) {\n        uint256 _index = todosMap[_id];\n        delete todos[_index];\n        delete todosMap[_id];\n\n        SResult memory result;\n        result.message = \"Todo is deleted successfully\";\n\n        return result;\n    }\n\n    \n\n    function updateTodo(uint256 _id, string memory _title, string memory _description, uint256 _priority) public payable returns(SResult memory) {\n        uint256 _index = todosMap[_id];\n        STodo storage _todo = todos[_index];\n        _todo.title = _title;\n        _todo.description = _description;\n        _todo.priority = _priority;\n\n        SResult memory result;\n        result.message = \"Todo is deleted successfully\";\n\n        return result;\n    }\n}",
  "sourcePath": "C:\\Users\\dev\\Desktop\\web-3\\blockchain-todo-toolkit\\truffle\\contracts\\TodoSmartContract.sol",
  "compiler": {
    "name": "solc",
    "version": "0.8.0+commit.c7dfd78e.Emscripten.clang"
  },
  "schemaVersion": "3.4.3",
  "updatedAt": "2021-12-12T06:54:55.014Z",
  "networkType": "ethereum",
  "devdoc": {
    "kind": "dev",
    "methods": {},
    "version": 1
  },
  "userdoc": {
    "kind": "user",
    "methods": {},
    "version": 1
  }
}