{
  "contractName": "LipToken",
  "abi": [
    {
      "inputs": [
        {
          "internalType": "string",
          "name": "_name",
          "type": "string"
        },
        {
          "internalType": "string",
          "name": "_symbol",
          "type": "string"
        }
      ],
      "stateMutability": "nonpayable",
      "type": "constructor"
    },
    {
      "anonymous": false,
      "inputs": [
        {
          "indexed": true,
          "internalType": "address",
          "name": "owner",
          "type": "address"
        },
        {
          "indexed": true,
          "internalType": "address",
          "name": "approved",
          "type": "address"
        },
        {
          "indexed": true,
          "internalType": "uint256",
          "name": "tokenId",
          "type": "uint256"
        }
      ],
      "name": "Approval",
      "type": "event"
    },
    {
      "anonymous": false,
      "inputs": [
        {
          "indexed": true,
          "internalType": "address",
          "name": "owner",
          "type": "address"
        },
        {
          "indexed": true,
          "internalType": "address",
          "name": "operator",
          "type": "address"
        },
        {
          "indexed": false,
          "internalType": "bool",
          "name": "approved",
          "type": "bool"
        }
      ],
      "name": "ApprovalForAll",
      "type": "event"
    },
    {
      "anonymous": false,
      "inputs": [
        {
          "indexed": true,
          "internalType": "address",
          "name": "owner",
          "type": "address"
        },
        {
          "indexed": false,
          "internalType": "uint256",
          "name": "id",
          "type": "uint256"
        },
        {
          "indexed": false,
          "internalType": "uint256",
          "name": "dna",
          "type": "uint256"
        }
      ],
      "name": "NewLip",
      "type": "event"
    },
    {
      "anonymous": false,
      "inputs": [
        {
          "indexed": true,
          "internalType": "address",
          "name": "previousOwner",
          "type": "address"
        },
        {
          "indexed": true,
          "internalType": "address",
          "name": "newOwner",
          "type": "address"
        }
      ],
      "name": "OwnershipTransferred",
      "type": "event"
    },
    {
      "anonymous": false,
      "inputs": [
        {
          "indexed": true,
          "internalType": "address",
          "name": "from",
          "type": "address"
        },
        {
          "indexed": true,
          "internalType": "address",
          "name": "to",
          "type": "address"
        },
        {
          "indexed": true,
          "internalType": "uint256",
          "name": "tokenId",
          "type": "uint256"
        }
      ],
      "name": "Transfer",
      "type": "event"
    },
    {
      "inputs": [
        {
          "internalType": "address",
          "name": "to",
          "type": "address"
        },
        {
          "internalType": "uint256",
          "name": "tokenId",
          "type": "uint256"
        }
      ],
      "name": "approve",
      "outputs": [],
      "stateMutability": "nonpayable",
      "type": "function"
    },
    {
      "inputs": [
        {
          "internalType": "address",
          "name": "owner",
          "type": "address"
        }
      ],
      "name": "balanceOf",
      "outputs": [
        {
          "internalType": "uint256",
          "name": "",
          "type": "uint256"
        }
      ],
      "stateMutability": "view",
      "type": "function",
      "constant": true
    },
    {
      "inputs": [],
      "name": "fee",
      "outputs": [
        {
          "internalType": "uint256",
          "name": "",
          "type": "uint256"
        }
      ],
      "stateMutability": "view",
      "type": "function",
      "constant": true
    },
    {
      "inputs": [
        {
          "internalType": "uint256",
          "name": "tokenId",
          "type": "uint256"
        }
      ],
      "name": "getApproved",
      "outputs": [
        {
          "internalType": "address",
          "name": "",
          "type": "address"
        }
      ],
      "stateMutability": "view",
      "type": "function",
      "constant": true
    },
    {
      "inputs": [
        {
          "internalType": "address",
          "name": "owner",
          "type": "address"
        },
        {
          "internalType": "address",
          "name": "operator",
          "type": "address"
        }
      ],
      "name": "isApprovedForAll",
      "outputs": [
        {
          "internalType": "bool",
          "name": "",
          "type": "bool"
        }
      ],
      "stateMutability": "view",
      "type": "function",
      "constant": true
    },
    {
      "inputs": [
        {
          "internalType": "uint256",
          "name": "",
          "type": "uint256"
        }
      ],
      "name": "lips",
      "outputs": [
        {
          "internalType": "string",
          "name": "name",
          "type": "string"
        },
        {
          "internalType": "uint256",
          "name": "id",
          "type": "uint256"
        },
        {
          "internalType": "uint256",
          "name": "dna",
          "type": "uint256"
        },
        {
          "internalType": "uint8",
          "name": "level",
          "type": "uint8"
        },
        {
          "internalType": "uint8",
          "name": "rarity",
          "type": "uint8"
        }
      ],
      "stateMutability": "view",
      "type": "function",
      "constant": true
    },
    {
      "inputs": [],
      "name": "name",
      "outputs": [
        {
          "internalType": "string",
          "name": "",
          "type": "string"
        }
      ],
      "stateMutability": "view",
      "type": "function",
      "constant": true
    },
    {
      "inputs": [],
      "name": "owner",
      "outputs": [
        {
          "internalType": "address",
          "name": "",
          "type": "address"
        }
      ],
      "stateMutability": "view",
      "type": "function",
      "constant": true
    },
    {
      "inputs": [
        {
          "internalType": "uint256",
          "name": "tokenId",
          "type": "uint256"
        }
      ],
      "name": "ownerOf",
      "outputs": [
        {
          "internalType": "address",
          "name": "",
          "type": "address"
        }
      ],
      "stateMutability": "view",
      "type": "function",
      "constant": true
    },
    {
      "inputs": [],
      "name": "renounceOwnership",
      "outputs": [],
      "stateMutability": "nonpayable",
      "type": "function"
    },
    {
      "inputs": [
        {
          "internalType": "address",
          "name": "from",
          "type": "address"
        },
        {
          "internalType": "address",
          "name": "to",
          "type": "address"
        },
        {
          "internalType": "uint256",
          "name": "tokenId",
          "type": "uint256"
        }
      ],
      "name": "safeTransferFrom",
      "outputs": [],
      "stateMutability": "nonpayable",
      "type": "function"
    },
    {
      "inputs": [
        {
          "internalType": "address",
          "name": "from",
          "type": "address"
        },
        {
          "internalType": "address",
          "name": "to",
          "type": "address"
        },
        {
          "internalType": "uint256",
          "name": "tokenId",
          "type": "uint256"
        },
        {
          "internalType": "bytes",
          "name": "_data",
          "type": "bytes"
        }
      ],
      "name": "safeTransferFrom",
      "outputs": [],
      "stateMutability": "nonpayable",
      "type": "function"
    },
    {
      "inputs": [
        {
          "internalType": "address",
          "name": "operator",
          "type": "address"
        },
        {
          "internalType": "bool",
          "name": "approved",
          "type": "bool"
        }
      ],
      "name": "setApprovalForAll",
      "outputs": [],
      "stateMutability": "nonpayable",
      "type": "function"
    },
    {
      "inputs": [
        {
          "internalType": "bytes4",
          "name": "interfaceId",
          "type": "bytes4"
        }
      ],
      "name": "supportsInterface",
      "outputs": [
        {
          "internalType": "bool",
          "name": "",
          "type": "bool"
        }
      ],
      "stateMutability": "view",
      "type": "function",
      "constant": true
    },
    {
      "inputs": [],
      "name": "symbol",
      "outputs": [
        {
          "internalType": "string",
          "name": "",
          "type": "string"
        }
      ],
      "stateMutability": "view",
      "type": "function",
      "constant": true
    },
    {
      "inputs": [
        {
          "internalType": "uint256",
          "name": "tokenId",
          "type": "uint256"
        }
      ],
      "name": "tokenURI",
      "outputs": [
        {
          "internalType": "string",
          "name": "",
          "type": "string"
        }
      ],
      "stateMutability": "view",
      "type": "function",
      "constant": true
    },
    {
      "inputs": [
        {
          "internalType": "address",
          "name": "from",
          "type": "address"
        },
        {
          "internalType": "address",
          "name": "to",
          "type": "address"
        },
        {
          "internalType": "uint256",
          "name": "tokenId",
          "type": "uint256"
        }
      ],
      "name": "transferFrom",
      "outputs": [],
      "stateMutability": "nonpayable",
      "type": "function"
    },
    {
      "inputs": [
        {
          "internalType": "address",
          "name": "newOwner",
          "type": "address"
        }
      ],
      "name": "transferOwnership",
      "outputs": [],
      "stateMutability": "nonpayable",
      "type": "function"
    },
    {
      "inputs": [
        {
          "internalType": "uint256",
          "name": "_newFee",
          "type": "uint256"
        }
      ],
      "name": "updateFee",
      "outputs": [],
      "stateMutability": "nonpayable",
      "type": "function"
    },
    {
      "inputs": [],
      "name": "withdraw",
      "outputs": [],
      "stateMutability": "payable",
      "type": "function",
      "payable": true
    },
    {
      "inputs": [
        {
          "internalType": "string",
          "name": "_name",
          "type": "string"
        }
      ],
      "name": "createRandomLip",
      "outputs": [],
      "stateMutability": "payable",
      "type": "function",
      "payable": true
    },
    {
      "inputs": [],
      "name": "getLips",
      "outputs": [
        {
          "components": [
            {
              "internalType": "string",
              "name": "name",
              "type": "string"
            },
            {
              "internalType": "uint256",
              "name": "id",
              "type": "uint256"
            },
            {
              "internalType": "uint256",
              "name": "dna",
              "type": "uint256"
            },
            {
              "internalType": "uint8",
              "name": "level",
              "type": "uint8"
            },
            {
              "internalType": "uint8",
              "name": "rarity",
              "type": "uint8"
            }
          ],
          "internalType": "struct LipToken.Lip[]",
          "name": "",
          "type": "tuple[]"
        }
      ],
      "stateMutability": "view",
      "type": "function",
      "constant": true
    },
    {
      "inputs": [
        {
          "internalType": "address",
          "name": "_owner",
          "type": "address"
        }
      ],
      "name": "getOwnerLips",
      "outputs": [
        {
          "components": [
            {
              "internalType": "string",
              "name": "name",
              "type": "string"
            },
            {
              "internalType": "uint256",
              "name": "id",
              "type": "uint256"
            },
            {
              "internalType": "uint256",
              "name": "dna",
              "type": "uint256"
            },
            {
              "internalType": "uint8",
              "name": "level",
              "type": "uint8"
            },
            {
              "internalType": "uint8",
              "name": "rarity",
              "type": "uint8"
            }
          ],
          "internalType": "struct LipToken.Lip[]",
          "name": "",
          "type": "tuple[]"
        }
      ],
      "stateMutability": "view",
      "type": "function",
      "constant": true
    },
    {
      "inputs": [
        {
          "internalType": "uint256",
          "name": "_lipId",
          "type": "uint256"
        }
      ],
      "name": "levelUp",
      "outputs": [],
      "stateMutability": "payable",
      "type": "function",
      "payable": true
    }
  ],
  "bytecode": "0x6080604052600160075566038d7ea4c680006008553480156200002157600080fd5b5060405162003e7638038062003e76833981810160405281019062000047919062000295565b818181600090805190602001906200006192919062000173565b5080600190805190602001906200007a92919062000173565b5050506200009d62000091620000a560201b60201c565b620000ad60201b60201c565b505062000439565b600033905090565b6000600660009054906101000a900473ffffffffffffffffffffffffffffffffffffffff16905081600660006101000a81548173ffffffffffffffffffffffffffffffffffffffff021916908373ffffffffffffffffffffffffffffffffffffffff1602179055508173ffffffffffffffffffffffffffffffffffffffff168173ffffffffffffffffffffffffffffffffffffffff167f8be0079c531659141344cd1fd0a4f28419497f9722a3daafe3b4186f6b6457e060405160405180910390a35050565b8280546200018190620003a5565b90600052602060002090601f016020900481019282620001a55760008555620001f1565b82601f10620001c057805160ff1916838001178555620001f1565b82800160010185558215620001f1579182015b82811115620001f0578251825591602001919060010190620001d3565b5b50905062000200919062000204565b5090565b5b808211156200021f57600081600090555060010162000205565b5090565b60006200023a62000234846200033c565b62000308565b9050828152602081018484840111156200025357600080fd5b620002608482856200036f565b509392505050565b600082601f8301126200027a57600080fd5b81516200028c84826020860162000223565b91505092915050565b60008060408385031215620002a957600080fd5b600083015167ffffffffffffffff811115620002c457600080fd5b620002d28582860162000268565b925050602083015167ffffffffffffffff811115620002f057600080fd5b620002fe8582860162000268565b9150509250929050565b6000604051905081810181811067ffffffffffffffff821117156200033257620003316200040a565b5b8060405250919050565b600067ffffffffffffffff8211156200035a57620003596200040a565b5b601f19601f8301169050602081019050919050565b60005b838110156200038f57808201518184015260208101905062000372565b838111156200039f576000848401525b50505050565b60006002820490506001821680620003be57607f821691505b60208210811415620003d557620003d4620003db565b5b50919050565b7f4e487b7100000000000000000000000000000000000000000000000000000000600052602260045260246000fd5b7f4e487b7100000000000000000000000000000000000000000000000000000000600052604160045260246000fd5b613a2d80620004496000396000f3fe60806040526004361061014b5760003560e01c8063715018a6116100b6578063a22cb4651161006f578063a22cb4651461046b578063b88d4fde14610494578063c87b56dd146104bd578063ddca3f43146104fa578063e985e9c514610525578063f2fde38b146105625761014b565b8063715018a61461036d57806383b5daf7146103845780638c0b9c54146103af5780638da5cb5b146103ec5780639012c4a81461041757806395d89b41146104405761014b565b80633ccfd60b116101085780633ccfd60b1461026357806342842e0e1461026d5780635ec163db146102965780636352211e146102d7578063698d640c1461031457806370a08231146103305761014b565b806301ffc9a71461015057806306fdde031461018d578063081812fc146101b8578063095ea7b3146101f55780630ce90ec21461021e57806323b872dd1461023a575b600080fd5b34801561015c57600080fd5b5061017760048036038101906101729190612826565b61058b565b6040516101849190613226565b60405180910390f35b34801561019957600080fd5b506101a261066d565b6040516101af9190613241565b60405180910390f35b3480156101c457600080fd5b506101df60048036038101906101da91906128b9565b6106ff565b6040516101ec919061319d565b60405180910390f35b34801561020157600080fd5b5061021c600480360381019061021791906127ea565b610784565b005b610238600480360381019061023391906128b9565b61089c565b005b34801561024657600080fd5b50610261600480360381019061025c91906126e4565b610972565b005b61026b6109d2565b005b34801561027957600080fd5b50610294600480360381019061028f91906126e4565b610aa4565b005b3480156102a257600080fd5b506102bd60048036038101906102b891906128b9565b610ac4565b6040516102ce959493929190613263565b60405180910390f35b3480156102e357600080fd5b506102fe60048036038101906102f991906128b9565b610bac565b60405161030b919061319d565b60405180910390f35b61032e60048036038101906103299190612878565b610c5e565b005b34801561033c57600080fd5b506103576004803603810190610352919061267f565b610caf565b60405161036491906134dd565b60405180910390f35b34801561037957600080fd5b50610382610d67565b005b34801561039057600080fd5b50610399610def565b6040516103a69190613204565b60405180910390f35b3480156103bb57600080fd5b506103d660048036038101906103d1919061267f565b610f2e565b6040516103e39190613204565b60405180910390f35b3480156103f857600080fd5b506104016111ab565b60405161040e919061319d565b60405180910390f35b34801561042357600080fd5b5061043e600480360381019061043991906128b9565b6111d5565b005b34801561044c57600080fd5b5061045561125b565b6040516104629190613241565b60405180910390f35b34801561047757600080fd5b50610492600480360381019061048d91906127ae565b6112ed565b005b3480156104a057600080fd5b506104bb60048036038101906104b69190612733565b61146e565b005b3480156104c957600080fd5b506104e460048036038101906104df91906128b9565b6114d0565b6040516104f19190613241565b60405180910390f35b34801561050657600080fd5b5061050f611577565b60405161051c91906134dd565b60405180910390f35b34801561053157600080fd5b5061054c600480360381019061054791906126a8565b61157d565b6040516105599190613226565b60405180910390f35b34801561056e57600080fd5b506105896004803603810190610584919061267f565b611611565b005b60007f80ac58cd000000000000000000000000000000000000000000000000000000007bffffffffffffffffffffffffffffffffffffffffffffffffffffffff1916827bffffffffffffffffffffffffffffffffffffffffffffffffffffffff1916148061065657507f5b5e139f000000000000000000000000000000000000000000000000000000007bffffffffffffffffffffffffffffffffffffffffffffffffffffffff1916827bffffffffffffffffffffffffffffffffffffffffffffffffffffffff1916145b80610666575061066582611709565b5b9050919050565b60606000805461067c906137bd565b80601f01602080910402602001604051908101604052809291908181526020018280546106a8906137bd565b80156106f55780601f106106ca576101008083540402835291602001916106f5565b820191906000526020600020905b8154815290600101906020018083116106d857829003601f168201915b5050505050905090565b600061070a82611773565b610749576040517f08c379a00000000000000000000000000000000000000000000000000000000081526004016107409061341d565b60405180910390fd5b6004600083815260200190815260200160002060009054906101000a900473ffffffffffffffffffffffffffffffffffffffff169050919050565b600061078f82610bac565b90508073ffffffffffffffffffffffffffffffffffffffff168373ffffffffffffffffffffffffffffffffffffffff161415610800576040517f08c379a00000000000000000000000000000000000000000000000000000000081526004016107f79061349d565b60405180910390fd5b8073ffffffffffffffffffffffffffffffffffffffff1661081f6117df565b73ffffffffffffffffffffffffffffffffffffffff16148061084e575061084d816108486117df565b61157d565b5b61088d576040517f08c379a00000000000000000000000000000000000000000000000000000000081526004016108849061339d565b60405180910390fd5b61089783836117e7565b505050565b3373ffffffffffffffffffffffffffffffffffffffff166108bc82610bac565b73ffffffffffffffffffffffffffffffffffffffff16146108dc57600080fd5b600060096001836108ed91906136c6565b81548110610924577f4e487b7100000000000000000000000000000000000000000000000000000000600052603260045260246000fd5b9060005260206000209060040201905080600301600081819054906101000a900460ff168092919061095590613838565b91906101000a81548160ff021916908360ff160217905550505050565b61098361097d6117df565b826118a0565b6109c2576040517f08c379a00000000000000000000000000000000000000000000000000000000081526004016109b9906134bd565b60405180910390fd5b6109cd83838361197e565b505050565b6109da6117df565b73ffffffffffffffffffffffffffffffffffffffff166109f86111ab565b73ffffffffffffffffffffffffffffffffffffffff1614610a4e576040517f08c379a0000000000000000000000000000000000000000000000000000000008152600401610a459061343d565b60405180910390fd5b6000610a586111ab565b90508073ffffffffffffffffffffffffffffffffffffffff166108fc479081150290604051600060405180830381858888f19350505050158015610aa0573d6000803e3d6000fd5b5050565b610abf8383836040518060200160405280600081525061146e565b505050565b60098181548110610ad457600080fd5b9060005260206000209060040201600091509050806000018054610af7906137bd565b80601f0160208091040260200160405190810160405280929190818152602001828054610b23906137bd565b8015610b705780601f10610b4557610100808354040283529160200191610b70565b820191906000526020600020905b815481529060010190602001808311610b5357829003601f168201915b5050505050908060010154908060020154908060030160009054906101000a900460ff16908060030160019054906101000a900460ff16905085565b6000806002600084815260200190815260200160002060009054906101000a900473ffffffffffffffffffffffffffffffffffffffff169050600073ffffffffffffffffffffffffffffffffffffffff168173ffffffffffffffffffffffffffffffffffffffff161415610c55576040517f08c379a0000000000000000000000000000000000000000000000000000000008152600401610c4c906133dd565b60405180910390fd5b80915050919050565b600854341015610ca3576040517f08c379a0000000000000000000000000000000000000000000000000000000008152600401610c9a9061335d565b60405180910390fd5b610cac81611bda565b50565b60008073ffffffffffffffffffffffffffffffffffffffff168273ffffffffffffffffffffffffffffffffffffffff161415610d20576040517f08c379a0000000000000000000000000000000000000000000000000000000008152600401610d17906133bd565b60405180910390fd5b600360008373ffffffffffffffffffffffffffffffffffffffff1673ffffffffffffffffffffffffffffffffffffffff168152602001908152602001600020549050919050565b610d6f6117df565b73ffffffffffffffffffffffffffffffffffffffff16610d8d6111ab565b73ffffffffffffffffffffffffffffffffffffffff1614610de3576040517f08c379a0000000000000000000000000000000000000000000000000000000008152600401610dda9061343d565b60405180910390fd5b610ded6000611d4d565b565b60606009805480602002602001604051908101604052809291908181526020016000905b82821015610f2557838290600052602060002090600402016040518060a0016040529081600082018054610e46906137bd565b80601f0160208091040260200160405190810160405280929190818152602001828054610e72906137bd565b8015610ebf5780601f10610e9457610100808354040283529160200191610ebf565b820191906000526020600020905b815481529060010190602001808311610ea257829003601f168201915b5050505050815260200160018201548152602001600282015481526020016003820160009054906101000a900460ff1660ff1660ff1681526020016003820160019054906101000a900460ff1660ff1660ff168152505081526020019060010190610e13565b50505050905090565b60606000610f3b83610caf565b67ffffffffffffffff811115610f7a577f4e487b7100000000000000000000000000000000000000000000000000000000600052604160045260246000fd5b604051908082528060200260200182016040528015610fb357816020015b610fa061246e565b815260200190600190039081610f985790505b509050600080600190505b6009805490508110156111a0578473ffffffffffffffffffffffffffffffffffffffff16610feb82610bac565b73ffffffffffffffffffffffffffffffffffffffff16141561118d5760098181548110611041577f4e487b7100000000000000000000000000000000000000000000000000000000600052603260045260246000fd5b90600052602060002090600402016040518060a001604052908160008201805461106a906137bd565b80601f0160208091040260200160405190810160405280929190818152602001828054611096906137bd565b80156110e35780601f106110b8576101008083540402835291602001916110e3565b820191906000526020600020905b8154815290600101906020018083116110c657829003601f168201915b5050505050815260200160018201548152602001600282015481526020016003820160009054906101000a900460ff1660ff1660ff1681526020016003820160019054906101000a900460ff1660ff1660ff1681525050838381518110611173577f4e487b7100000000000000000000000000000000000000000000000000000000600052603260045260246000fd5b60200260200101819052508180611189906137ef565b9250505b8080611198906137ef565b915050610fbe565b508192505050919050565b6000600660009054906101000a900473ffffffffffffffffffffffffffffffffffffffff16905090565b6111dd6117df565b73ffffffffffffffffffffffffffffffffffffffff166111fb6111ab565b73ffffffffffffffffffffffffffffffffffffffff1614611251576040517f08c379a00000000000000000000000000000000000000000000000000000000081526004016112489061343d565b60405180910390fd5b8060088190555050565b60606001805461126a906137bd565b80601f0160208091040260200160405190810160405280929190818152602001828054611296906137bd565b80156112e35780601f106112b8576101008083540402835291602001916112e3565b820191906000526020600020905b8154815290600101906020018083116112c657829003601f168201915b5050505050905090565b6112f56117df565b73ffffffffffffffffffffffffffffffffffffffff168273ffffffffffffffffffffffffffffffffffffffff161415611363576040517f08c379a000000000000000000000000000000000000000000000000000000000815260040161135a9061333d565b60405180910390fd5b80600560006113706117df565b73ffffffffffffffffffffffffffffffffffffffff1673ffffffffffffffffffffffffffffffffffffffff16815260200190815260200160002060008473ffffffffffffffffffffffffffffffffffffffff1673ffffffffffffffffffffffffffffffffffffffff16815260200190815260200160002060006101000a81548160ff0219169083151502179055508173ffffffffffffffffffffffffffffffffffffffff1661141d6117df565b73ffffffffffffffffffffffffffffffffffffffff167f17307eab39ab6107e8899845ad3d59bd9653f200f220920489ca2b5937696c31836040516114629190613226565b60405180910390a35050565b61147f6114796117df565b836118a0565b6114be576040517f08c379a00000000000000000000000000000000000000000000000000000000081526004016114b5906134bd565b60405180910390fd5b6114ca84848484611e13565b50505050565b60606114db82611773565b61151a576040517f08c379a00000000000000000000000000000000000000000000000000000000081526004016115119061347d565b60405180910390fd5b6000611524611e6f565b90506000815111611544576040518060200160405280600081525061156f565b8061154e84611e86565b60405160200161155f92919061314d565b6040516020818303038152906040525b915050919050565b60085481565b6000600560008473ffffffffffffffffffffffffffffffffffffffff1673ffffffffffffffffffffffffffffffffffffffff16815260200190815260200160002060008373ffffffffffffffffffffffffffffffffffffffff1673ffffffffffffffffffffffffffffffffffffffff16815260200190815260200160002060009054906101000a900460ff16905092915050565b6116196117df565b73ffffffffffffffffffffffffffffffffffffffff166116376111ab565b73ffffffffffffffffffffffffffffffffffffffff161461168d576040517f08c379a00000000000000000000000000000000000000000000000000000000081526004016116849061343d565b60405180910390fd5b600073ffffffffffffffffffffffffffffffffffffffff168173ffffffffffffffffffffffffffffffffffffffff1614156116fd576040517f08c379a00000000000000000000000000000000000000000000000000000000081526004016116f4906132dd565b60405180910390fd5b61170681611d4d565b50565b60007f01ffc9a7000000000000000000000000000000000000000000000000000000007bffffffffffffffffffffffffffffffffffffffffffffffffffffffff1916827bffffffffffffffffffffffffffffffffffffffffffffffffffffffff1916149050919050565b60008073ffffffffffffffffffffffffffffffffffffffff166002600084815260200190815260200160002060009054906101000a900473ffffffffffffffffffffffffffffffffffffffff1673ffffffffffffffffffffffffffffffffffffffff1614159050919050565b600033905090565b816004600083815260200190815260200160002060006101000a81548173ffffffffffffffffffffffffffffffffffffffff021916908373ffffffffffffffffffffffffffffffffffffffff160217905550808273ffffffffffffffffffffffffffffffffffffffff1661185a83610bac565b73ffffffffffffffffffffffffffffffffffffffff167f8c5be1e5ebec7d5bd14f71427d1e84f3dd0314c0f7b2291e5b200ac8c7c3b92560405160405180910390a45050565b60006118ab82611773565b6118ea576040517f08c379a00000000000000000000000000000000000000000000000000000000081526004016118e19061337d565b60405180910390fd5b60006118f583610bac565b90508073ffffffffffffffffffffffffffffffffffffffff168473ffffffffffffffffffffffffffffffffffffffff16148061196457508373ffffffffffffffffffffffffffffffffffffffff1661194c846106ff565b73ffffffffffffffffffffffffffffffffffffffff16145b806119755750611974818561157d565b5b91505092915050565b8273ffffffffffffffffffffffffffffffffffffffff1661199e82610bac565b73ffffffffffffffffffffffffffffffffffffffff16146119f4576040517f08c379a00000000000000000000000000000000000000000000000000000000081526004016119eb9061345d565b60405180910390fd5b600073ffffffffffffffffffffffffffffffffffffffff168273ffffffffffffffffffffffffffffffffffffffff161415611a64576040517f08c379a0000000000000000000000000000000000000000000000000000000008152600401611a5b9061331d565b60405180910390fd5b611a6f838383612033565b611a7a6000826117e7565b6001600360008573ffffffffffffffffffffffffffffffffffffffff1673ffffffffffffffffffffffffffffffffffffffff1681526020019081526020016000206000828254611aca91906136c6565b925050819055506001600360008473ffffffffffffffffffffffffffffffffffffffff1673ffffffffffffffffffffffffffffffffffffffff1681526020019081526020016000206000828254611b21919061363f565b92505081905550816002600083815260200190815260200160002060006101000a81548173ffffffffffffffffffffffffffffffffffffffff021916908373ffffffffffffffffffffffffffffffffffffffff160217905550808273ffffffffffffffffffffffffffffffffffffffff168473ffffffffffffffffffffffffffffffffffffffff167fddf252ad1be2c89b69c2b068fc378daa952ba7f163c4a11628f55a4df523b3ef60405160405180910390a4505050565b6000611be66064612038565b90506000611bfa662386f26fc10000612038565b905060006040518060a001604052808581526020016007548152602001838152602001600160ff1681526020018460ff16815250905060098190806001815401808255809150506001900390600052602060002090600402016000909190919091506000820151816000019080519060200190611c789291906124a3565b50602082015181600101556040820151816002015560608201518160030160006101000a81548160ff021916908360ff16021790555060808201518160030160016101000a81548160ff021916908360ff1602179055505050611cdd3360075461207d565b3373ffffffffffffffffffffffffffffffffffffffff167f24d2d558f98bdd9d21339e119fc0b03e213c7d05affd838ac2ee136d90e3bbeb60075484604051611d279291906134f8565b60405180910390a260076000815480929190611d42906137ef565b919050555050505050565b6000600660009054906101000a900473ffffffffffffffffffffffffffffffffffffffff16905081600660006101000a81548173ffffffffffffffffffffffffffffffffffffffff021916908373ffffffffffffffffffffffffffffffffffffffff1602179055508173ffffffffffffffffffffffffffffffffffffffff168173ffffffffffffffffffffffffffffffffffffffff167f8be0079c531659141344cd1fd0a4f28419497f9722a3daafe3b4186f6b6457e060405160405180910390a35050565b611e1e84848461197e565b611e2a8484848461209b565b611e69576040517f08c379a0000000000000000000000000000000000000000000000000000000008152600401611e60906132bd565b60405180910390fd5b50505050565b606060405180602001604052806000815250905090565b60606000821415611ece576040518060400160405280600181526020017f3000000000000000000000000000000000000000000000000000000000000000815250905061202e565b600082905060005b60008214611f00578080611ee9906137ef565b915050600a82611ef99190613695565b9150611ed6565b60008167ffffffffffffffff811115611f42577f4e487b7100000000000000000000000000000000000000000000000000000000600052604160045260246000fd5b6040519080825280601f01601f191660200182016040528015611f745781602001600182028036833780820191505090505b5090505b6000851461202757600182611f8d91906136c6565b9150600a85611f9c9190613890565b6030611fa8919061363f565b60f81b818381518110611fe4577f4e487b7100000000000000000000000000000000000000000000000000000000600052603260045260246000fd5b60200101907effffffffffffffffffffffffffffffffffffffffffffffffffffffffffffff1916908160001a905350600a856120209190613695565b9450611f78565b8093505050505b919050565b505050565b600080423360405160200161204e929190613171565b6040516020818303038152906040528051906020012060001c905082816120759190613890565b915050919050565b612097828260405180602001604052806000815250612232565b5050565b60006120bc8473ffffffffffffffffffffffffffffffffffffffff1661228d565b15612225578373ffffffffffffffffffffffffffffffffffffffff1663150b7a026120e56117df565b8786866040518563ffffffff1660e01b815260040161210794939291906131b8565b602060405180830381600087803b15801561212157600080fd5b505af192505050801561215257506040513d601f19601f8201168201806040525081019061214f919061284f565b60015b6121d5573d8060008114612182576040519150601f19603f3d011682016040523d82523d6000602084013e612187565b606091505b506000815114156121cd576040517f08c379a00000000000000000000000000000000000000000000000000000000081526004016121c4906132bd565b60405180910390fd5b805181602001fd5b63150b7a0260e01b7bffffffffffffffffffffffffffffffffffffffffffffffffffffffff1916817bffffffffffffffffffffffffffffffffffffffffffffffffffffffff19161491505061222a565b600190505b949350505050565b61223c83836122a0565b612249600084848461209b565b612288576040517f08c379a000000000000000000000000000000000000000000000000000000000815260040161227f906132bd565b60405180910390fd5b505050565b600080823b905060008111915050919050565b600073ffffffffffffffffffffffffffffffffffffffff168273ffffffffffffffffffffffffffffffffffffffff161415612310576040517f08c379a0000000000000000000000000000000000000000000000000000000008152600401612307906133fd565b60405180910390fd5b61231981611773565b15612359576040517f08c379a0000000000000000000000000000000000000000000000000000000008152600401612350906132fd565b60405180910390fd5b61236560008383612033565b6001600360008473ffffffffffffffffffffffffffffffffffffffff1673ffffffffffffffffffffffffffffffffffffffff16815260200190815260200160002060008282546123b5919061363f565b92505081905550816002600083815260200190815260200160002060006101000a81548173ffffffffffffffffffffffffffffffffffffffff021916908373ffffffffffffffffffffffffffffffffffffffff160217905550808273ffffffffffffffffffffffffffffffffffffffff16600073ffffffffffffffffffffffffffffffffffffffff167fddf252ad1be2c89b69c2b068fc378daa952ba7f163c4a11628f55a4df523b3ef60405160405180910390a45050565b6040518060a00160405280606081526020016000815260200160008152602001600060ff168152602001600060ff1681525090565b8280546124af906137bd565b90600052602060002090601f0160209004810192826124d15760008555612518565b82601f106124ea57805160ff1916838001178555612518565b82800160010185558215612518579182015b828111156125175782518255916020019190600101906124fc565b5b5090506125259190612529565b5090565b5b8082111561254257600081600090555060010161252a565b5090565b600061255961255484613552565b613521565b90508281526020810184848401111561257157600080fd5b61257c84828561377b565b509392505050565b600061259761259284613582565b613521565b9050828152602081018484840111156125af57600080fd5b6125ba84828561377b565b509392505050565b6000813590506125d18161399b565b92915050565b6000813590506125e6816139b2565b92915050565b6000813590506125fb816139c9565b92915050565b600081519050612610816139c9565b92915050565b600082601f83011261262757600080fd5b8135612637848260208601612546565b91505092915050565b600082601f83011261265157600080fd5b8135612661848260208601612584565b91505092915050565b600081359050612679816139e0565b92915050565b60006020828403121561269157600080fd5b600061269f848285016125c2565b91505092915050565b600080604083850312156126bb57600080fd5b60006126c9858286016125c2565b92505060206126da858286016125c2565b9150509250929050565b6000806000606084860312156126f957600080fd5b6000612707868287016125c2565b9350506020612718868287016125c2565b92505060406127298682870161266a565b9150509250925092565b6000806000806080858703121561274957600080fd5b6000612757878288016125c2565b9450506020612768878288016125c2565b93505060406127798782880161266a565b925050606085013567ffffffffffffffff81111561279657600080fd5b6127a287828801612616565b91505092959194509250565b600080604083850312156127c157600080fd5b60006127cf858286016125c2565b92505060206127e0858286016125d7565b9150509250929050565b600080604083850312156127fd57600080fd5b600061280b858286016125c2565b925050602061281c8582860161266a565b9150509250929050565b60006020828403121561283857600080fd5b6000612846848285016125ec565b91505092915050565b60006020828403121561286157600080fd5b600061286f84828501612601565b91505092915050565b60006020828403121561288a57600080fd5b600082013567ffffffffffffffff8111156128a457600080fd5b6128b084828501612640565b91505092915050565b6000602082840312156128cb57600080fd5b60006128d98482850161266a565b91505092915050565b60006128ee8383613084565b905092915050565b6128ff816136fa565b82525050565b612916612911826136fa565b613862565b82525050565b6000612927826135c2565b61293181856135f0565b935083602082028501612943856135b2565b8060005b8581101561297f578484038952815161296085826128e2565b945061296b836135e3565b925060208a01995050600181019050612947565b50829750879550505050505092915050565b61299a8161370c565b82525050565b60006129ab826135cd565b6129b58185613601565b93506129c581856020860161378a565b6129ce8161397d565b840191505092915050565b60006129e4826135d8565b6129ee8185613612565b93506129fe81856020860161378a565b612a078161397d565b840191505092915050565b6000612a1d826135d8565b612a278185613623565b9350612a3781856020860161378a565b612a408161397d565b840191505092915050565b6000612a56826135d8565b612a608185613634565b9350612a7081856020860161378a565b80840191505092915050565b6000612a89603283613623565b91507f4552433732313a207472616e7366657220746f206e6f6e20455243373231526560008301527f63656976657220696d706c656d656e74657200000000000000000000000000006020830152604082019050919050565b6000612aef602683613623565b91507f4f776e61626c653a206e6577206f776e657220697320746865207a65726f206160008301527f64647265737300000000000000000000000000000000000000000000000000006020830152604082019050919050565b6000612b55601c83613623565b91507f4552433732313a20746f6b656e20616c7265616479206d696e746564000000006000830152602082019050919050565b6000612b95602483613623565b91507f4552433732313a207472616e7366657220746f20746865207a65726f2061646460008301527f72657373000000000000000000000000000000000000000000000000000000006020830152604082019050919050565b6000612bfb601983613623565b91507f4552433732313a20617070726f766520746f2063616c6c6572000000000000006000830152602082019050919050565b6000612c3b601683613623565b91507f54686520666565206973206e6f7420636f7272656374000000000000000000006000830152602082019050919050565b6000612c7b602c83613623565b91507f4552433732313a206f70657261746f7220717565727920666f72206e6f6e657860008301527f697374656e7420746f6b656e00000000000000000000000000000000000000006020830152604082019050919050565b6000612ce1603883613623565b91507f4552433732313a20617070726f76652063616c6c6572206973206e6f74206f7760008301527f6e6572206e6f7220617070726f76656420666f7220616c6c00000000000000006020830152604082019050919050565b6000612d47602a83613623565b91507f4552433732313a2062616c616e636520717565727920666f7220746865207a6560008301527f726f2061646472657373000000000000000000000000000000000000000000006020830152604082019050919050565b6000612dad602983613623565b91507f4552433732313a206f776e657220717565727920666f72206e6f6e657869737460008301527f656e7420746f6b656e00000000000000000000000000000000000000000000006020830152604082019050919050565b6000612e13602083613623565b91507f4552433732313a206d696e7420746f20746865207a65726f20616464726573736000830152602082019050919050565b6000612e53602c83613623565b91507f4552433732313a20617070726f76656420717565727920666f72206e6f6e657860008301527f697374656e7420746f6b656e00000000000000000000000000000000000000006020830152604082019050919050565b6000612eb9602083613623565b91507f4f776e61626c653a2063616c6c6572206973206e6f7420746865206f776e65726000830152602082019050919050565b6000612ef9602983613623565b91507f4552433732313a207472616e73666572206f6620746f6b656e2074686174206960008301527f73206e6f74206f776e00000000000000000000000000000000000000000000006020830152604082019050919050565b6000612f5f602f83613623565b91507f4552433732314d657461646174613a2055524920717565727920666f72206e6f60008301527f6e6578697374656e7420746f6b656e00000000000000000000000000000000006020830152604082019050919050565b6000612fc5602183613623565b91507f4552433732313a20617070726f76616c20746f2063757272656e74206f776e6560008301527f72000000000000000000000000000000000000000000000000000000000000006020830152604082019050919050565b600061302b603183613623565b91507f4552433732313a207472616e736665722063616c6c6572206973206e6f74206f60008301527f776e6572206e6f7220617070726f7665640000000000000000000000000000006020830152604082019050919050565b600060a08301600083015184820360008601526130a182826129d9565b91505060208301516130b660208601826130fa565b5060408301516130c960408601826130fa565b5060608301516130dc606086018261312f565b5060808301516130ef608086018261312f565b508091505092915050565b61310381613764565b82525050565b61311281613764565b82525050565b61312961312482613764565b613886565b82525050565b6131388161376e565b82525050565b6131478161376e565b82525050565b60006131598285612a4b565b91506131658284612a4b565b91508190509392505050565b600061317d8285613118565b60208201915061318d8284612905565b6014820191508190509392505050565b60006020820190506131b260008301846128f6565b92915050565b60006080820190506131cd60008301876128f6565b6131da60208301866128f6565b6131e76040830185613109565b81810360608301526131f981846129a0565b905095945050505050565b6000602082019050818103600083015261321e818461291c565b905092915050565b600060208201905061323b6000830184612991565b92915050565b6000602082019050818103600083015261325b8184612a12565b905092915050565b600060a082019050818103600083015261327d8188612a12565b905061328c6020830187613109565b6132996040830186613109565b6132a6606083018561313e565b6132b3608083018461313e565b9695505050505050565b600060208201905081810360008301526132d681612a7c565b9050919050565b600060208201905081810360008301526132f681612ae2565b9050919050565b6000602082019050818103600083015261331681612b48565b9050919050565b6000602082019050818103600083015261333681612b88565b9050919050565b6000602082019050818103600083015261335681612bee565b9050919050565b6000602082019050818103600083015261337681612c2e565b9050919050565b6000602082019050818103600083015261339681612c6e565b9050919050565b600060208201905081810360008301526133b681612cd4565b9050919050565b600060208201905081810360008301526133d681612d3a565b9050919050565b600060208201905081810360008301526133f681612da0565b9050919050565b6000602082019050818103600083015261341681612e06565b9050919050565b6000602082019050818103600083015261343681612e46565b9050919050565b6000602082019050818103600083015261345681612eac565b9050919050565b6000602082019050818103600083015261347681612eec565b9050919050565b6000602082019050818103600083015261349681612f52565b9050919050565b600060208201905081810360008301526134b681612fb8565b9050919050565b600060208201905081810360008301526134d68161301e565b9050919050565b60006020820190506134f26000830184613109565b92915050565b600060408201905061350d6000830185613109565b61351a6020830184613109565b9392505050565b6000604051905081810181811067ffffffffffffffff821117156135485761354761394e565b5b8060405250919050565b600067ffffffffffffffff82111561356d5761356c61394e565b5b601f19601f8301169050602081019050919050565b600067ffffffffffffffff82111561359d5761359c61394e565b5b601f19601f8301169050602081019050919050565b6000819050602082019050919050565b600081519050919050565b600081519050919050565b600081519050919050565b6000602082019050919050565b600082825260208201905092915050565b600082825260208201905092915050565b600082825260208201905092915050565b600082825260208201905092915050565b600081905092915050565b600061364a82613764565b915061365583613764565b9250827fffffffffffffffffffffffffffffffffffffffffffffffffffffffffffffffff0382111561368a576136896138c1565b5b828201905092915050565b60006136a082613764565b91506136ab83613764565b9250826136bb576136ba6138f0565b5b828204905092915050565b60006136d182613764565b91506136dc83613764565b9250828210156136ef576136ee6138c1565b5b828203905092915050565b600061370582613744565b9050919050565b60008115159050919050565b60007fffffffff0000000000000000000000000000000000000000000000000000000082169050919050565b600073ffffffffffffffffffffffffffffffffffffffff82169050919050565b6000819050919050565b600060ff82169050919050565b82818337600083830152505050565b60005b838110156137a857808201518184015260208101905061378d565b838111156137b7576000848401525b50505050565b600060028204905060018216806137d557607f821691505b602082108114156137e9576137e861391f565b5b50919050565b60006137fa82613764565b91507fffffffffffffffffffffffffffffffffffffffffffffffffffffffffffffffff82141561382d5761382c6138c1565b5b600182019050919050565b60006138438261376e565b915060ff821415613857576138566138c1565b5b600182019050919050565b600061386d82613874565b9050919050565b600061387f8261398e565b9050919050565b6000819050919050565b600061389b82613764565b91506138a683613764565b9250826138b6576138b56138f0565b5b828206905092915050565b7f4e487b7100000000000000000000000000000000000000000000000000000000600052601160045260246000fd5b7f4e487b7100000000000000000000000000000000000000000000000000000000600052601260045260246000fd5b7f4e487b7100000000000000000000000000000000000000000000000000000000600052602260045260246000fd5b7f4e487b7100000000000000000000000000000000000000000000000000000000600052604160045260246000fd5b6000601f19601f8301169050919050565b60008160601b9050919050565b6139a4816136fa565b81146139af57600080fd5b50565b6139bb8161370c565b81146139c657600080fd5b50565b6139d281613718565b81146139dd57600080fd5b50565b6139e981613764565b81146139f457600080fd5b5056fea2646970667358221220c07f31fe59311ee34899efab934cba73fb4a38c5aa11d0c550abecbf05f98d0e64736f6c63430008000033",
  "immutableReferences": {},
  "source": "// SPDX-License-Identifier: MIT\r\npragma solidity ^0.8.0;\r\n\r\nimport \"@openzeppelin/contracts/token/ERC721/ERC721.sol\";\r\nimport \"@openzeppelin/contracts/access/Ownable.sol\";\r\n\r\ncontract LipToken is ERC721, Ownable {\r\n    uint256 COUNTER = 1;\r\n    \r\n    uint256 public fee = 0.001 ether;\r\n    \r\n    struct Lip {\r\n        string name;\r\n        uint256 id;\r\n        uint256 dna;\r\n        uint8 level;\r\n        uint8 rarity;\r\n    }\r\n    \r\n    Lip[] public lips;\r\n    \r\n    event NewLip(address indexed owner, uint256 id, uint256 dna);\r\n    \r\n    //Helpers\r\n    function _createRandomNumber(uint256 _mod) internal view returns(uint256) {\r\n        uint256 randomNum = uint256(keccak256(abi.encodePacked(block.timestamp, msg.sender)));\r\n        return randomNum % _mod;\r\n    } \r\n    \r\n    function updateFee(uint256 _newFee) external onlyOwner() {\r\n        fee = _newFee;\r\n    }\r\n    \r\n    function withdraw() external payable onlyOwner() {\r\n        // owner is a functin whic is inside Ownable.sol\r\n        address payable _owner = payable(owner());\r\n        // We wanna transfer balance of this contract to owner of this contract\r\n        // `this` is referance this smart contract\r\n        _owner.transfer(address(this).balance);\r\n    }\r\n    \r\n    constructor(string memory _name, string memory _symbol)\r\n    ERC721(_name, _symbol)\r\n    {}\r\n    \r\n    // function mintMyNFT(address _to) public onlyOwner() {\r\n    //     // COUNTER = what is the index or what is the identifier of nft\r\n    //     _safeMint(_to, COUNTER);\r\n    //     COUNTER++;\r\n    // }\r\n    \r\n    /// @notice Creation\r\n    function _createLip(string memory _name) internal {\r\n        uint8 randomRarity = uint8(_createRandomNumber(100));\r\n        uint256 randomDna = _createRandomNumber(10**16);\r\n        Lip memory  newLip = Lip(_name, COUNTER, randomDna, 1, randomRarity);\r\n        lips.push(newLip);\r\n        _safeMint(msg.sender, COUNTER);\r\n        emit NewLip(msg.sender, COUNTER, randomDna);\r\n        COUNTER++;\r\n    }\r\n    \r\n    function createRandomLip(string memory _name) public payable {\r\n        require(msg.value >= fee, \"The fee is not correct\");\r\n        _createLip(_name);\r\n    }\r\n    \r\n    /// @notice Getters\r\n    function getLips() public view returns(Lip[] memory) {\r\n        return lips;\r\n    }\r\n\r\n    function getOwnerLips(address _owner) public view returns(Lip[] memory) {\r\n      // balanceOf ERC721 dan gelen bir method\r\n      // balanceOf token miktarini degilde kac tane LipNFT var onu soyler bize\r\n      Lip[] memory result = new Lip[](balanceOf(_owner));\r\n      uint256 counter = 0;\r\n      for(uint256 i = 1; i < lips.length; i++) {\r\n      // ownerOf ERC721 dan gelen bir method\r\n        if(ownerOf(i) == _owner) {\r\n          result[counter] = lips[i];\r\n          counter++;\r\n        }\r\n      }\r\n      return result;\r\n    }\r\n\r\n    // Actions\r\n    function levelUp(uint256 _lipId) public payable {\r\n        require(ownerOf(_lipId) == msg.sender);\r\n        Lip storage lip = lips[_lipId - 1];\r\n        lip.level++;\r\n    }\r\n}",
  "sourcePath": "C:\\Users\\dev\\Desktop\\web-3\\nft-game\\truffle\\contracts\\LipToken.sol",
  "compiler": {
    "name": "solc",
    "version": "0.8.0+commit.c7dfd78e.Emscripten.clang"
  },
  "schemaVersion": "3.4.3",
  "updatedAt": "2021-11-25T11:15:17.534Z",
  "networkType": "ethereum",
  "devdoc": {
    "kind": "dev",
    "methods": {
      "approve(address,uint256)": {
        "details": "See {IERC721-approve}."
      },
      "balanceOf(address)": {
        "details": "See {IERC721-balanceOf}."
      },
      "getApproved(uint256)": {
        "details": "See {IERC721-getApproved}."
      },
      "isApprovedForAll(address,address)": {
        "details": "See {IERC721-isApprovedForAll}."
      },
      "name()": {
        "details": "See {IERC721Metadata-name}."
      },
      "owner()": {
        "details": "Returns the address of the current owner."
      },
      "ownerOf(uint256)": {
        "details": "See {IERC721-ownerOf}."
      },
      "renounceOwnership()": {
        "details": "Leaves the contract without owner. It will not be possible to call `onlyOwner` functions anymore. Can only be called by the current owner. NOTE: Renouncing ownership will leave the contract without an owner, thereby removing any functionality that is only available to the owner."
      },
      "safeTransferFrom(address,address,uint256)": {
        "details": "See {IERC721-safeTransferFrom}."
      },
      "safeTransferFrom(address,address,uint256,bytes)": {
        "details": "See {IERC721-safeTransferFrom}."
      },
      "setApprovalForAll(address,bool)": {
        "details": "See {IERC721-setApprovalForAll}."
      },
      "supportsInterface(bytes4)": {
        "details": "See {IERC165-supportsInterface}."
      },
      "symbol()": {
        "details": "See {IERC721Metadata-symbol}."
      },
      "tokenURI(uint256)": {
        "details": "See {IERC721Metadata-tokenURI}."
      },
      "transferFrom(address,address,uint256)": {
        "details": "See {IERC721-transferFrom}."
      },
      "transferOwnership(address)": {
        "details": "Transfers ownership of the contract to a new account (`newOwner`). Can only be called by the current owner."
      }
    },
    "version": 1
  },
  "userdoc": {
    "kind": "user",
    "methods": {
      "getLips()": {
        "notice": "Getters"
      }
    },
    "version": 1
  }
}